{
  "_format": "hh-sol-artifact-1",
  "contractName": "ChainWork",
  "sourceName": "contracts/ChainWork.sol",
  "abi": [
    {
      "inputs": [
        {
          "internalType": "uint256",
          "name": "_jobId",
          "type": "uint256"
        },
        {
          "internalType": "address payable",
          "name": "_workerAddress",
          "type": "address"
        }
      ],
      "name": "approveWork",
      "outputs": [],
      "stateMutability": "nonpayable",
      "type": "function"
    },
    {
      "inputs": [
        {
          "internalType": "string",
          "name": "_jobDescription",
          "type": "string"
        },
        {
          "internalType": "uint256",
          "name": "_pay",
          "type": "uint256"
        }
      ],
      "name": "createWork",
      "outputs": [],
      "stateMutability": "nonpayable",
      "type": "function"
    },
    {
      "inputs": [
        {
          "internalType": "uint256",
          "name": "_jobId",
          "type": "uint256"
        }
      ],
      "name": "getJobPost",
      "outputs": [
        {
          "components": [
            {
              "internalType": "uint256",
              "name": "jobId",
              "type": "uint256"
            },
            {
              "internalType": "string",
              "name": "jobDescription",
              "type": "string"
            },
            {
              "internalType": "uint256",
              "name": "pay",
              "type": "uint256"
            },
            {
              "internalType": "bool",
              "name": "completed",
              "type": "bool"
            }
          ],
          "internalType": "struct ChainWork.Job",
          "name": "",
          "type": "tuple"
        }
      ],
      "stateMutability": "view",
      "type": "function"
    },
    {
      "inputs": [],
      "name": "jobIdCount",
      "outputs": [
        {
          "internalType": "uint256",
          "name": "",
          "type": "uint256"
        }
      ],
      "stateMutability": "view",
      "type": "function"
    },
    {
      "inputs": [
        {
          "internalType": "uint256",
          "name": "",
          "type": "uint256"
        }
      ],
      "name": "jobPosts",
      "outputs": [
        {
          "internalType": "uint256",
          "name": "jobId",
          "type": "uint256"
        },
        {
          "internalType": "string",
          "name": "jobDescription",
          "type": "string"
        },
        {
          "internalType": "uint256",
          "name": "pay",
          "type": "uint256"
        },
        {
          "internalType": "bool",
          "name": "completed",
          "type": "bool"
        }
      ],
      "stateMutability": "view",
      "type": "function"
    }
  ],
  "bytecode": "0x608060405234801561001057600080fd5b50610c42806100206000396000f3fe608060405234801561001057600080fd5b50600436106100575760003560e01c806305a079281461005c578063a2ba8e5f1461008f578063b678a320146100bf578063d4bc978b146100db578063d5a2c1db146100f9575b600080fd5b610076600480360381019061007191906106d6565b610115565b6040516100869493929190610904565b60405180910390f35b6100a960048036038101906100a491906106d6565b6101da565b6040516100b691906108c7565b60405180910390f35b6100d960048036038101906100d49190610682565b6102c8565b005b6100e3610373565b6040516100f091906108e9565b60405180910390f35b610113600480360381019061010e91906106ff565b610379565b005b600360205280600052604060002060009150905080600001549080600101805461013e90610a68565b80601f016020809104026020016040519081016040528092919081815260200182805461016a90610a68565b80156101b75780601f1061018c576101008083540402835291602001916101b7565b820191906000526020600020905b81548152906001019060200180831161019a57829003601f168201915b5050505050908060020154908060030160009054906101000a900460ff16905084565b6101e2610523565b600360008381526020019081526020016000206040518060800160405290816000820154815260200160018201805461021a90610a68565b80601f016020809104026020016040519081016040528092919081815260200182805461024690610a68565b80156102935780601f1061026857610100808354040283529160200191610293565b820191906000526020600020905b81548152906001019060200180831161027657829003601f168201915b50505050508152602001600282015481526020016003820160009054906101000a900460ff1615151515815250509050919050565b604051806080016040528060025481526020018381526020018281526020016000151581525060036000600254815260200190815260200160002060008201518160000155602082015181600101908051906020019061032992919061054d565b506040820151816002015560608201518160030160006101000a81548160ff0219169083151502179055509050506002600081548092919061036a90610acb565b91905055505050565b60025481565b600060036000848152602001908152602001600020604051806080016040529081600082015481526020016001820180546103b390610a68565b80601f01602080910402602001604051908101604052809291908181526020018280546103df90610a68565b801561042c5780601f106104015761010080835404028352916020019161042c565b820191906000526020600020905b81548152906001019060200180831161040f57829003601f168201915b50505050508152602001600282015481526020016003820160009054906101000a900460ff1615151515815250509050600181606001901515908115158152505060008273ffffffffffffffffffffffffffffffffffffffff16826040015160405161049790610892565b60006040518083038185875af1925050503d80600081146104d4576040519150601f19603f3d011682016040523d82523d6000602084013e6104d9565b606091505b505090508061051d576040517f08c379a0000000000000000000000000000000000000000000000000000000008152600401610514906108a7565b60405180910390fd5b50505050565b60405180608001604052806000815260200160608152602001600081526020016000151581525090565b82805461055990610a68565b90600052602060002090601f01602090048101928261057b57600085556105c2565b82601f1061059457805160ff19168380011785556105c2565b828001600101855582156105c2579182015b828111156105c15782518255916020019190600101906105a6565b5b5090506105cf91906105d3565b5090565b5b808211156105ec5760008160009055506001016105d4565b5090565b60006106036105fe84610975565b610950565b90508281526020810184848401111561061b57600080fd5b610626848285610a26565b509392505050565b60008135905061063d81610bde565b92915050565b600082601f83011261065457600080fd5b81356106648482602086016105f0565b91505092915050565b60008135905061067c81610bf5565b92915050565b6000806040838503121561069557600080fd5b600083013567ffffffffffffffff8111156106af57600080fd5b6106bb85828601610643565b92505060206106cc8582860161066d565b9150509250929050565b6000602082840312156106e857600080fd5b60006106f68482850161066d565b91505092915050565b6000806040838503121561071257600080fd5b60006107208582860161066d565b92505060206107318582860161062e565b9150509250929050565b610744816109f0565b82525050565b610753816109f0565b82525050565b6000610764826109a6565b61076e81856109bc565b935061077e818560208601610a35565b61078781610ba1565b840191505092915050565b600061079d826109a6565b6107a781856109cd565b93506107b7818560208601610a35565b6107c081610ba1565b840191505092915050565b60006107d86012836109cd565b91506107e382610bb2565b602082019050919050565b60006107fb6000836109b1565b915061080682610bdb565b600082019050919050565b60006080830160008301516108296000860182610874565b50602083015184820360208601526108418282610759565b91505060408301516108566040860182610874565b506060830151610869606086018261073b565b508091505092915050565b61087d81610a1c565b82525050565b61088c81610a1c565b82525050565b600061089d826107ee565b9150819050919050565b600060208201905081810360008301526108c0816107cb565b9050919050565b600060208201905081810360008301526108e18184610811565b905092915050565b60006020820190506108fe6000830184610883565b92915050565b60006080820190506109196000830187610883565b818103602083015261092b8186610792565b905061093a6040830185610883565b610947606083018461074a565b95945050505050565b600061095a61096b565b90506109668282610a9a565b919050565b6000604051905090565b600067ffffffffffffffff8211156109905761098f610b72565b5b61099982610ba1565b9050602081019050919050565b600081519050919050565b600081905092915050565b600082825260208201905092915050565b600082825260208201905092915050565b60006109e9826109fc565b9050919050565b60008115159050919050565b600073ffffffffffffffffffffffffffffffffffffffff82169050919050565b6000819050919050565b82818337600083830152505050565b60005b83811015610a53578082015181840152602081019050610a38565b83811115610a62576000848401525b50505050565b60006002820490506001821680610a8057607f821691505b60208210811415610a9457610a93610b43565b5b50919050565b610aa382610ba1565b810181811067ffffffffffffffff82111715610ac257610ac1610b72565b5b80604052505050565b6000610ad682610a1c565b91507fffffffffffffffffffffffffffffffffffffffffffffffffffffffffffffffff821415610b0957610b08610b14565b5b600182019050919050565b7f4e487b7100000000000000000000000000000000000000000000000000000000600052601160045260246000fd5b7f4e487b7100000000000000000000000000000000000000000000000000000000600052602260045260246000fd5b7f4e487b7100000000000000000000000000000000000000000000000000000000600052604160045260246000fd5b6000601f19601f8301169050919050565b7f4661696c656420746f2073656e64207061790000000000000000000000000000600082015250565b50565b610be7816109de565b8114610bf257600080fd5b50565b610bfe81610a1c565b8114610c0957600080fd5b5056fea2646970667358221220b7ee0fa0f0de0975c72240d5544826893f015d90354e31af726b4e614cc1ade264736f6c63430008040033",
  "linkReferences": {},
  "deployedLinkReferences": {}
}