{
  "_format": "hh-sol-artifact-1",
  "contractName": "ChainWork",
  "sourceName": "contracts/ChainWork.sol",
  "abi": [
    {
      "inputs": [
        {
          "internalType": "uint256",
          "name": "_jobId",
          "type": "uint256"
        },
        {
          "internalType": "address payable",
          "name": "_workerAddress",
          "type": "address"
        }
      ],
      "name": "approveWork",
      "outputs": [],
      "stateMutability": "nonpayable",
      "type": "function"
    },
    {
      "inputs": [
        {
          "internalType": "uint256",
          "name": "_jobId",
          "type": "uint256"
        },
        {
          "internalType": "string",
          "name": "_jobDescription",
          "type": "string"
        },
        {
          "internalType": "uint256",
          "name": "_pay",
          "type": "uint256"
        }
      ],
      "name": "createWork",
      "outputs": [],
      "stateMutability": "nonpayable",
      "type": "function"
    },
    {
      "inputs": [
        {
          "internalType": "uint256",
          "name": "_jobId",
          "type": "uint256"
        }
      ],
      "name": "getJobPost",
      "outputs": [
        {
          "components": [
            {
              "internalType": "uint256",
              "name": "jobId",
              "type": "uint256"
            },
            {
              "internalType": "string",
              "name": "jobDescription",
              "type": "string"
            },
            {
              "internalType": "uint256",
              "name": "pay",
              "type": "uint256"
            },
            {
              "internalType": "bool",
              "name": "completed",
              "type": "bool"
            }
          ],
          "internalType": "struct ChainWork.Job",
          "name": "",
          "type": "tuple"
        }
      ],
      "stateMutability": "view",
      "type": "function"
    },
    {
      "inputs": [
        {
          "internalType": "uint256",
          "name": "",
          "type": "uint256"
        }
      ],
      "name": "jobPosts",
      "outputs": [
        {
          "internalType": "uint256",
          "name": "jobId",
          "type": "uint256"
        },
        {
          "internalType": "string",
          "name": "jobDescription",
          "type": "string"
        },
        {
          "internalType": "uint256",
          "name": "pay",
          "type": "uint256"
        },
        {
          "internalType": "bool",
          "name": "completed",
          "type": "bool"
        }
      ],
      "stateMutability": "view",
      "type": "function"
    }
  ],
  "bytecode": "0x608060405234801561001057600080fd5b50610b78806100206000396000f3fe608060405234801561001057600080fd5b506004361061004c5760003560e01c806305a07928146100515780636e7b5ef114610084578063a2ba8e5f146100a0578063d5a2c1db146100d0575b600080fd5b61006b60048036038101906100669190610638565b6100ec565b60405161007b94939291906108b2565b60405180910390f35b61009e6004803603810190610099919061069d565b6101b1565b005b6100ba60048036038101906100b59190610638565b610241565b6040516100c79190610890565b60405180910390f35b6100ea60048036038101906100e59190610661565b61032f565b005b600260205280600052604060002060009150905080600001549080600101805461011590610a16565b80601f016020809104026020016040519081016040528092919081815260200182805461014190610a16565b801561018e5780601f106101635761010080835404028352916020019161018e565b820191906000526020600020905b81548152906001019060200180831161017157829003601f168201915b5050505050908060020154908060030160009054906101000a900460ff16905084565b6040518060800160405280848152602001838152602001828152602001600015158152506002600085815260200190815260200160002060008201518160000155602082015181600101908051906020019061020e9291906104d9565b506040820151816002015560608201518160030160006101000a81548160ff021916908315150217905550905050505050565b61024961055f565b600260008381526020019081526020016000206040518060800160405290816000820154815260200160018201805461028190610a16565b80601f01602080910402602001604051908101604052809291908181526020018280546102ad90610a16565b80156102fa5780601f106102cf576101008083540402835291602001916102fa565b820191906000526020600020905b8154815290600101906020018083116102dd57829003601f168201915b50505050508152602001600282015481526020016003820160009054906101000a900460ff1615151515815250509050919050565b6000600260008481526020019081526020016000206040518060800160405290816000820154815260200160018201805461036990610a16565b80601f016020809104026020016040519081016040528092919081815260200182805461039590610a16565b80156103e25780601f106103b7576101008083540402835291602001916103e2565b820191906000526020600020905b8154815290600101906020018083116103c557829003601f168201915b50505050508152602001600282015481526020016003820160009054906101000a900460ff1615151515815250509050600181606001901515908115158152505060008273ffffffffffffffffffffffffffffffffffffffff16826040015160405161044d9061085b565b60006040518083038185875af1925050503d806000811461048a576040519150601f19603f3d011682016040523d82523d6000602084013e61048f565b606091505b50509050806104d3576040517f08c379a00000000000000000000000000000000000000000000000000000000081526004016104ca90610870565b60405180910390fd5b50505050565b8280546104e590610a16565b90600052602060002090601f016020900481019282610507576000855561054e565b82601f1061052057805160ff191683800117855561054e565b8280016001018555821561054e579182015b8281111561054d578251825591602001919060010190610532565b5b50905061055b9190610589565b5090565b60405180608001604052806000815260200160608152602001600081526020016000151581525090565b5b808211156105a257600081600090555060010161058a565b5090565b60006105b96105b484610923565b6108fe565b9050828152602081018484840111156105d157600080fd5b6105dc8482856109d4565b509392505050565b6000813590506105f381610b14565b92915050565b600082601f83011261060a57600080fd5b813561061a8482602086016105a6565b91505092915050565b60008135905061063281610b2b565b92915050565b60006020828403121561064a57600080fd5b600061065884828501610623565b91505092915050565b6000806040838503121561067457600080fd5b600061068285828601610623565b9250506020610693858286016105e4565b9150509250929050565b6000806000606084860312156106b257600080fd5b60006106c086828701610623565b935050602084013567ffffffffffffffff8111156106dd57600080fd5b6106e9868287016105f9565b92505060406106fa86828701610623565b9150509250925092565b61070d8161099e565b82525050565b61071c8161099e565b82525050565b600061072d82610954565b610737818561096a565b93506107478185602086016109e3565b61075081610ad7565b840191505092915050565b600061076682610954565b610770818561097b565b93506107808185602086016109e3565b61078981610ad7565b840191505092915050565b60006107a160128361097b565b91506107ac82610ae8565b602082019050919050565b60006107c460008361095f565b91506107cf82610b11565b600082019050919050565b60006080830160008301516107f2600086018261083d565b506020830151848203602086015261080a8282610722565b915050604083015161081f604086018261083d565b5060608301516108326060860182610704565b508091505092915050565b610846816109ca565b82525050565b610855816109ca565b82525050565b6000610866826107b7565b9150819050919050565b6000602082019050818103600083015261088981610794565b9050919050565b600060208201905081810360008301526108aa81846107da565b905092915050565b60006080820190506108c7600083018761084c565b81810360208301526108d9818661075b565b90506108e8604083018561084c565b6108f56060830184610713565b95945050505050565b6000610908610919565b90506109148282610a48565b919050565b6000604051905090565b600067ffffffffffffffff82111561093e5761093d610aa8565b5b61094782610ad7565b9050602081019050919050565b600081519050919050565b600081905092915050565b600082825260208201905092915050565b600082825260208201905092915050565b6000610997826109aa565b9050919050565b60008115159050919050565b600073ffffffffffffffffffffffffffffffffffffffff82169050919050565b6000819050919050565b82818337600083830152505050565b60005b83811015610a015780820151818401526020810190506109e6565b83811115610a10576000848401525b50505050565b60006002820490506001821680610a2e57607f821691505b60208210811415610a4257610a41610a79565b5b50919050565b610a5182610ad7565b810181811067ffffffffffffffff82111715610a7057610a6f610aa8565b5b80604052505050565b7f4e487b7100000000000000000000000000000000000000000000000000000000600052602260045260246000fd5b7f4e487b7100000000000000000000000000000000000000000000000000000000600052604160045260246000fd5b6000601f19601f8301169050919050565b7f4661696c656420746f2073656e64207061790000000000000000000000000000600082015250565b50565b610b1d8161098c565b8114610b2857600080fd5b50565b610b34816109ca565b8114610b3f57600080fd5b5056fea2646970667358221220b10877b9f9b93884e40792aa1715e92a0065968c6134c576557caa752b7e75b864736f6c63430008040033",
  "linkReferences": {},
  "deployedLinkReferences": {}
}