{
  "_format": "hh-sol-artifact-1",
  "contractName": "ChainWork",
  "sourceName": "contracts/ChainWork.sol",
  "abi": [
    {
      "inputs": [
        {
          "internalType": "string",
          "name": "_jobId",
          "type": "string"
        },
        {
          "internalType": "address",
          "name": "_workerAddress",
          "type": "address"
        }
      ],
      "name": "approveWork",
      "outputs": [],
      "stateMutability": "nonpayable",
      "type": "function"
    },
    {
      "inputs": [
        {
          "internalType": "string",
          "name": "jobId",
          "type": "string"
        },
        {
          "internalType": "string",
          "name": "_jobDescription",
          "type": "string"
        },
        {
          "internalType": "uint256",
          "name": "_pay",
          "type": "uint256"
        },
        {
          "internalType": "address",
          "name": "_workerAddress",
          "type": "address"
        }
      ],
      "name": "createWork",
      "outputs": [],
      "stateMutability": "nonpayable",
      "type": "function"
    },
    {
      "inputs": [
        {
          "internalType": "string",
          "name": "_jobId",
          "type": "string"
        }
      ],
      "name": "getJobPost",
      "outputs": [
        {
          "components": [
            {
              "internalType": "string",
              "name": "jobId",
              "type": "string"
            },
            {
              "internalType": "string",
              "name": "jobDescription",
              "type": "string"
            },
            {
              "internalType": "uint256",
              "name": "pay",
              "type": "uint256"
            },
            {
              "internalType": "bool",
              "name": "completed",
              "type": "bool"
            },
            {
              "internalType": "address",
              "name": "workerAddress",
              "type": "address"
            }
          ],
          "internalType": "struct ChainWork.Job",
          "name": "",
          "type": "tuple"
        }
      ],
      "stateMutability": "view",
      "type": "function"
    },
    {
      "inputs": [
        {
          "internalType": "string",
          "name": "",
          "type": "string"
        }
      ],
      "name": "jobPosts",
      "outputs": [
        {
          "internalType": "string",
          "name": "jobId",
          "type": "string"
        },
        {
          "internalType": "string",
          "name": "jobDescription",
          "type": "string"
        },
        {
          "internalType": "uint256",
          "name": "pay",
          "type": "uint256"
        },
        {
          "internalType": "bool",
          "name": "completed",
          "type": "bool"
        },
        {
          "internalType": "address",
          "name": "workerAddress",
          "type": "address"
        }
      ],
      "stateMutability": "view",
      "type": "function"
    }
  ],
  "bytecode": "0x608060405234801561001057600080fd5b50610ceb806100206000396000f3fe608060405234801561001057600080fd5b506004361061004c5760003560e01c80637903d32114610051578063c1eb5b941461006d578063e5d0de411461009d578063e7acecf8146100d1575b600080fd5b61006b600480360381019061006691906107f6565b6100ed565b005b61008760048036038101906100829190610761565b6101ff565b6040516100949190610a7b565b60405180910390f35b6100b760048036038101906100b29190610761565b6103d6565b6040516100c8959493929190610a1a565b60405180910390f35b6100eb60048036038101906100e691906107a2565b61055f565b005b6040518060a001604052808581526020018481526020018381526020016000151581526020018273ffffffffffffffffffffffffffffffffffffffff1681525060008560405161013d9190610a03565b908152602001604051809103902060008201518160000190805190602001906101679291906105e5565b5060208201518160010190805190602001906101849291906105e5565b506040820151816002015560608201518160030160006101000a81548160ff02191690831515021790555060808201518160030160016101000a81548173ffffffffffffffffffffffffffffffffffffffff021916908373ffffffffffffffffffffffffffffffffffffffff16021790555090505050505050565b61020761066b565b6000826040516102179190610a03565b90815260200160405180910390206040518060a001604052908160008201805461024090610bb5565b80601f016020809104026020016040519081016040528092919081815260200182805461026c90610bb5565b80156102b95780601f1061028e576101008083540402835291602001916102b9565b820191906000526020600020905b81548152906001019060200180831161029c57829003601f168201915b505050505081526020016001820180546102d290610bb5565b80601f01602080910402602001604051908101604052809291908181526020018280546102fe90610bb5565b801561034b5780601f106103205761010080835404028352916020019161034b565b820191906000526020600020905b81548152906001019060200180831161032e57829003601f168201915b50505050508152602001600282015481526020016003820160009054906101000a900460ff161515151581526020016003820160019054906101000a900473ffffffffffffffffffffffffffffffffffffffff1673ffffffffffffffffffffffffffffffffffffffff1673ffffffffffffffffffffffffffffffffffffffff16815250509050919050565b60008180516020810182018051848252602083016020850120818352809550505050505060009150905080600001805461040f90610bb5565b80601f016020809104026020016040519081016040528092919081815260200182805461043b90610bb5565b80156104885780601f1061045d57610100808354040283529160200191610488565b820191906000526020600020905b81548152906001019060200180831161046b57829003601f168201915b50505050509080600101805461049d90610bb5565b80601f01602080910402602001604051908101604052809291908181526020018280546104c990610bb5565b80156105165780601f106104eb57610100808354040283529160200191610516565b820191906000526020600020905b8154815290600101906020018083116104f957829003601f168201915b5050505050908060020154908060030160009054906101000a900460ff16908060030160019054906101000a900473ffffffffffffffffffffffffffffffffffffffff16905085565b600080836040516105709190610a03565b9081526020016040518091039020905060018160030160006101000a81548160ff021916908315150217905550818160030160016101000a81548173ffffffffffffffffffffffffffffffffffffffff021916908373ffffffffffffffffffffffffffffffffffffffff160217905550505050565b8280546105f190610bb5565b90600052602060002090601f016020900481019282610613576000855561065a565b82601f1061062c57805160ff191683800117855561065a565b8280016001018555821561065a579182015b8281111561065957825182559160200191906001019061063e565b5b50905061066791906106b2565b5090565b6040518060a00160405280606081526020016060815260200160008152602001600015158152602001600073ffffffffffffffffffffffffffffffffffffffff1681525090565b5b808211156106cb5760008160009055506001016106b3565b5090565b60006106e26106dd84610ac2565b610a9d565b9050828152602081018484840111156106fa57600080fd5b610705848285610b73565b509392505050565b60008135905061071c81610c87565b92915050565b600082601f83011261073357600080fd5b81356107438482602086016106cf565b91505092915050565b60008135905061075b81610c9e565b92915050565b60006020828403121561077357600080fd5b600082013567ffffffffffffffff81111561078d57600080fd5b61079984828501610722565b91505092915050565b600080604083850312156107b557600080fd5b600083013567ffffffffffffffff8111156107cf57600080fd5b6107db85828601610722565b92505060206107ec8582860161070d565b9150509250929050565b6000806000806080858703121561080c57600080fd5b600085013567ffffffffffffffff81111561082657600080fd5b61083287828801610722565b945050602085013567ffffffffffffffff81111561084f57600080fd5b61085b87828801610722565b935050604061086c8782880161074c565b925050606061087d8782880161070d565b91505092959194509250565b61089281610b2b565b82525050565b6108a181610b2b565b82525050565b6108b081610b3d565b82525050565b6108bf81610b3d565b82525050565b60006108d082610af3565b6108da8185610afe565b93506108ea818560208601610b82565b6108f381610c76565b840191505092915050565b600061090982610af3565b6109138185610b0f565b9350610923818560208601610b82565b61092c81610c76565b840191505092915050565b600061094282610af3565b61094c8185610b20565b935061095c818560208601610b82565b80840191505092915050565b600060a083016000830151848203600086015261098582826108c5565b9150506020830151848203602086015261099f82826108c5565b91505060408301516109b460408601826109e5565b5060608301516109c760608601826108a7565b5060808301516109da6080860182610889565b508091505092915050565b6109ee81610b69565b82525050565b6109fd81610b69565b82525050565b6000610a0f8284610937565b915081905092915050565b600060a0820190508181036000830152610a3481886108fe565b90508181036020830152610a4881876108fe565b9050610a5760408301866109f4565b610a6460608301856108b6565b610a716080830184610898565b9695505050505050565b60006020820190508181036000830152610a958184610968565b905092915050565b6000610aa7610ab8565b9050610ab38282610be7565b919050565b6000604051905090565b600067ffffffffffffffff821115610add57610adc610c47565b5b610ae682610c76565b9050602081019050919050565b600081519050919050565b600082825260208201905092915050565b600082825260208201905092915050565b600081905092915050565b6000610b3682610b49565b9050919050565b60008115159050919050565b600073ffffffffffffffffffffffffffffffffffffffff82169050919050565b6000819050919050565b82818337600083830152505050565b60005b83811015610ba0578082015181840152602081019050610b85565b83811115610baf576000848401525b50505050565b60006002820490506001821680610bcd57607f821691505b60208210811415610be157610be0610c18565b5b50919050565b610bf082610c76565b810181811067ffffffffffffffff82111715610c0f57610c0e610c47565b5b80604052505050565b7f4e487b7100000000000000000000000000000000000000000000000000000000600052602260045260246000fd5b7f4e487b7100000000000000000000000000000000000000000000000000000000600052604160045260246000fd5b6000601f19601f8301169050919050565b610c9081610b2b565b8114610c9b57600080fd5b50565b610ca781610b69565b8114610cb257600080fd5b5056fea2646970667358221220f5daa2ddf981911311819f28e78434c4cdd9bee45c9653594595e3a35c47bef964736f6c63430008040033",
  "linkReferences": {},
  "deployedLinkReferences": {}
}